{
  "address": "0x209f302Ca931fBDA170D6c63AC9EaB7CE2b17b42",
  "abi": [
    {
      "inputs": [],
      "stateMutability": "nonpayable",
      "type": "constructor"
    },
    {
      "anonymous": false,
      "inputs": [
        {
          "indexed": true,
          "internalType": "address",
          "name": "owner",
          "type": "address"
        },
        {
          "indexed": true,
          "internalType": "address",
          "name": "spender",
          "type": "address"
        },
        {
          "indexed": false,
          "internalType": "uint256",
          "name": "value",
          "type": "uint256"
        }
      ],
      "name": "Approval",
      "type": "event"
    },
    {
      "anonymous": false,
      "inputs": [
        {
          "indexed": true,
          "internalType": "address",
          "name": "_teamMember",
          "type": "address"
        },
        {
          "indexed": false,
          "internalType": "uint256",
          "name": "_reward",
          "type": "uint256"
        },
        {
          "indexed": false,
          "internalType": "uint256",
          "name": "_rewardPerToken",
          "type": "uint256"
        }
      ],
      "name": "PoolRewardDeposited",
      "type": "event"
    },
    {
      "anonymous": false,
      "inputs": [
        {
          "indexed": true,
          "internalType": "bytes32",
          "name": "role",
          "type": "bytes32"
        },
        {
          "indexed": true,
          "internalType": "bytes32",
          "name": "previousAdminRole",
          "type": "bytes32"
        },
        {
          "indexed": true,
          "internalType": "bytes32",
          "name": "newAdminRole",
          "type": "bytes32"
        }
      ],
      "name": "RoleAdminChanged",
      "type": "event"
    },
    {
      "anonymous": false,
      "inputs": [
        {
          "indexed": true,
          "internalType": "bytes32",
          "name": "role",
          "type": "bytes32"
        },
        {
          "indexed": true,
          "internalType": "address",
          "name": "account",
          "type": "address"
        },
        {
          "indexed": true,
          "internalType": "address",
          "name": "sender",
          "type": "address"
        }
      ],
      "name": "RoleGranted",
      "type": "event"
    },
    {
      "anonymous": false,
      "inputs": [
        {
          "indexed": true,
          "internalType": "bytes32",
          "name": "role",
          "type": "bytes32"
        },
        {
          "indexed": true,
          "internalType": "address",
          "name": "account",
          "type": "address"
        },
        {
          "indexed": true,
          "internalType": "address",
          "name": "sender",
          "type": "address"
        }
      ],
      "name": "RoleRevoked",
      "type": "event"
    },
    {
      "anonymous": false,
      "inputs": [
        {
          "indexed": true,
          "internalType": "address",
          "name": "_teamMember",
          "type": "address"
        },
        {
          "indexed": false,
          "internalType": "uint256",
          "name": "_value",
          "type": "uint256"
        }
      ],
      "name": "TeamETHReceived",
      "type": "event"
    },
    {
      "anonymous": false,
      "inputs": [
        {
          "indexed": true,
          "internalType": "address",
          "name": "_teamMember",
          "type": "address"
        },
        {
          "indexed": false,
          "internalType": "uint256",
          "name": "_value",
          "type": "uint256"
        }
      ],
      "name": "TeamETHWithdrawn",
      "type": "event"
    },
    {
      "anonymous": false,
      "inputs": [
        {
          "indexed": true,
          "internalType": "address",
          "name": "from",
          "type": "address"
        },
        {
          "indexed": true,
          "internalType": "address",
          "name": "to",
          "type": "address"
        },
        {
          "indexed": false,
          "internalType": "uint256",
          "name": "value",
          "type": "uint256"
        }
      ],
      "name": "Transfer",
      "type": "event"
    },
    {
      "stateMutability": "payable",
      "type": "fallback"
    },
    {
      "inputs": [],
      "name": "DEFAULT_ADMIN_ROLE",
      "outputs": [
        {
          "internalType": "bytes32",
          "name": "",
          "type": "bytes32"
        }
      ],
      "stateMutability": "view",
      "type": "function"
    },
    {
      "inputs": [],
      "name": "TEAM_MEMBER",
      "outputs": [
        {
          "internalType": "bytes32",
          "name": "",
          "type": "bytes32"
        }
      ],
      "stateMutability": "view",
      "type": "function"
    },
    {
      "inputs": [
        {
          "internalType": "address",
          "name": "owner",
          "type": "address"
        },
        {
          "internalType": "address",
          "name": "spender",
          "type": "address"
        }
      ],
      "name": "allowance",
      "outputs": [
        {
          "internalType": "uint256",
          "name": "",
          "type": "uint256"
        }
      ],
      "stateMutability": "view",
      "type": "function"
    },
    {
      "inputs": [
        {
          "internalType": "address",
          "name": "spender",
          "type": "address"
        },
        {
          "internalType": "uint256",
          "name": "amount",
          "type": "uint256"
        }
      ],
      "name": "approve",
      "outputs": [
        {
          "internalType": "bool",
          "name": "",
          "type": "bool"
        }
      ],
      "stateMutability": "nonpayable",
      "type": "function"
    },
    {
      "inputs": [
        {
          "internalType": "address",
          "name": "account",
          "type": "address"
        }
      ],
      "name": "balanceOf",
      "outputs": [
        {
          "internalType": "uint256",
          "name": "",
          "type": "uint256"
        }
      ],
      "stateMutability": "view",
      "type": "function"
    },
    {
      "inputs": [],
      "name": "decimals",
      "outputs": [
        {
          "internalType": "uint8",
          "name": "",
          "type": "uint8"
        }
      ],
      "stateMutability": "view",
      "type": "function"
    },
    {
      "inputs": [
        {
          "internalType": "address",
          "name": "spender",
          "type": "address"
        },
        {
          "internalType": "uint256",
          "name": "subtractedValue",
          "type": "uint256"
        }
      ],
      "name": "decreaseAllowance",
      "outputs": [
        {
          "internalType": "bool",
          "name": "",
          "type": "bool"
        }
      ],
      "stateMutability": "nonpayable",
      "type": "function"
    },
    {
      "inputs": [],
      "name": "depositPoolReward",
      "outputs": [],
      "stateMutability": "payable",
      "type": "function"
    },
    {
      "inputs": [],
      "name": "depositUserETH",
      "outputs": [],
      "stateMutability": "payable",
      "type": "function"
    },
    {
      "inputs": [
        {
          "internalType": "bytes32",
          "name": "role",
          "type": "bytes32"
        }
      ],
      "name": "getRoleAdmin",
      "outputs": [
        {
          "internalType": "bytes32",
          "name": "",
          "type": "bytes32"
        }
      ],
      "stateMutability": "view",
      "type": "function"
    },
    {
      "inputs": [],
      "name": "getTeamETH",
      "outputs": [
        {
          "internalType": "uint256",
          "name": "",
          "type": "uint256"
        }
      ],
      "stateMutability": "view",
      "type": "function"
    },
    {
      "inputs": [
        {
          "internalType": "address",
          "name": "_user",
          "type": "address"
        }
      ],
      "name": "getUserETH",
      "outputs": [
        {
          "internalType": "uint256",
          "name": "",
          "type": "uint256"
        }
      ],
      "stateMutability": "view",
      "type": "function"
    },
    {
      "inputs": [
        {
          "internalType": "address",
          "name": "_user",
          "type": "address"
        }
      ],
      "name": "getUserRewards",
      "outputs": [
        {
          "internalType": "uint256",
          "name": "",
          "type": "uint256"
        }
      ],
      "stateMutability": "view",
      "type": "function"
    },
    {
      "inputs": [
        {
          "internalType": "bytes32",
          "name": "role",
          "type": "bytes32"
        },
        {
          "internalType": "address",
          "name": "account",
          "type": "address"
        }
      ],
      "name": "grantRole",
      "outputs": [],
      "stateMutability": "nonpayable",
      "type": "function"
    },
    {
      "inputs": [
        {
          "internalType": "bytes32",
          "name": "role",
          "type": "bytes32"
        },
        {
          "internalType": "address",
          "name": "account",
          "type": "address"
        }
      ],
      "name": "hasRole",
      "outputs": [
        {
          "internalType": "bool",
          "name": "",
          "type": "bool"
        }
      ],
      "stateMutability": "view",
      "type": "function"
    },
    {
      "inputs": [
        {
          "internalType": "address",
          "name": "spender",
          "type": "address"
        },
        {
          "internalType": "uint256",
          "name": "addedValue",
          "type": "uint256"
        }
      ],
      "name": "increaseAllowance",
      "outputs": [
        {
          "internalType": "bool",
          "name": "",
          "type": "bool"
        }
      ],
      "stateMutability": "nonpayable",
      "type": "function"
    },
    {
      "inputs": [],
      "name": "name",
      "outputs": [
        {
          "internalType": "string",
          "name": "",
          "type": "string"
        }
      ],
      "stateMutability": "view",
      "type": "function"
    },
    {
      "inputs": [
        {
          "internalType": "bytes32",
          "name": "role",
          "type": "bytes32"
        },
        {
          "internalType": "address",
          "name": "account",
          "type": "address"
        }
      ],
      "name": "renounceRole",
      "outputs": [],
      "stateMutability": "nonpayable",
      "type": "function"
    },
    {
      "inputs": [
        {
          "internalType": "bytes32",
          "name": "role",
          "type": "bytes32"
        },
        {
          "internalType": "address",
          "name": "account",
          "type": "address"
        }
      ],
      "name": "revokeRole",
      "outputs": [],
      "stateMutability": "nonpayable",
      "type": "function"
    },
    {
      "inputs": [],
      "name": "rewardTime",
      "outputs": [
        {
          "internalType": "uint256",
          "name": "",
          "type": "uint256"
        }
      ],
      "stateMutability": "view",
      "type": "function"
    },
    {
      "inputs": [],
      "name": "rewardsPerToken",
      "outputs": [
        {
          "internalType": "uint256",
          "name": "",
          "type": "uint256"
        }
      ],
      "stateMutability": "view",
      "type": "function"
    },
    {
      "inputs": [
        {
          "internalType": "bytes4",
          "name": "interfaceId",
          "type": "bytes4"
        }
      ],
      "name": "supportsInterface",
      "outputs": [
        {
          "internalType": "bool",
          "name": "",
          "type": "bool"
        }
      ],
      "stateMutability": "view",
      "type": "function"
    },
    {
      "inputs": [],
      "name": "symbol",
      "outputs": [
        {
          "internalType": "string",
          "name": "",
          "type": "string"
        }
      ],
      "stateMutability": "view",
      "type": "function"
    },
    {
      "inputs": [],
      "name": "totalSupply",
      "outputs": [
        {
          "internalType": "uint256",
          "name": "",
          "type": "uint256"
        }
      ],
      "stateMutability": "view",
      "type": "function"
    },
    {
      "inputs": [
        {
          "internalType": "address",
          "name": "recipient",
          "type": "address"
        },
        {
          "internalType": "uint256",
          "name": "amount",
          "type": "uint256"
        }
      ],
      "name": "transfer",
      "outputs": [
        {
          "internalType": "bool",
          "name": "",
          "type": "bool"
        }
      ],
      "stateMutability": "nonpayable",
      "type": "function"
    },
    {
      "inputs": [
        {
          "internalType": "address",
          "name": "sender",
          "type": "address"
        },
        {
          "internalType": "address",
          "name": "recipient",
          "type": "address"
        },
        {
          "internalType": "uint256",
          "name": "amount",
          "type": "uint256"
        }
      ],
      "name": "transferFrom",
      "outputs": [
        {
          "internalType": "bool",
          "name": "",
          "type": "bool"
        }
      ],
      "stateMutability": "nonpayable",
      "type": "function"
    },
    {
      "inputs": [
        {
          "internalType": "address",
          "name": "",
          "type": "address"
        }
      ],
      "name": "userToRewardsPerTokenCredited",
      "outputs": [
        {
          "internalType": "uint256",
          "name": "",
          "type": "uint256"
        }
      ],
      "stateMutability": "view",
      "type": "function"
    },
    {
      "inputs": [
        {
          "internalType": "address",
          "name": "",
          "type": "address"
        }
      ],
      "name": "userToUnclaimedRewards",
      "outputs": [
        {
          "internalType": "uint256",
          "name": "",
          "type": "uint256"
        }
      ],
      "stateMutability": "view",
      "type": "function"
    },
    {
      "inputs": [
        {
          "internalType": "uint256",
          "name": "_value",
          "type": "uint256"
        }
      ],
      "name": "withdrawTeamETH",
      "outputs": [],
      "stateMutability": "nonpayable",
      "type": "function"
    },
    {
      "inputs": [],
      "name": "withdrawUserETH",
      "outputs": [],
      "stateMutability": "nonpayable",
      "type": "function"
    },
    {
      "stateMutability": "payable",
      "type": "receive"
    }
  ],
  "transactionHash": "0x85ac6a9747db085a8fb2d901cdd5e30f16dc36174e24bb2989cd3fdb46fa38e0",
  "args": [],
  "solcInputHash": "75d589d335dbc34ae45bb86f6ead28b8",
  "bytecode": "0x60806040523480156200001157600080fd5b50604080518082018252600a8152690a0deded8cac8408aa8960b31b6020808301918252835180850190945260048452630e08aa8960e31b90840152815191929162000060916003916200016e565b508051620000769060049060208401906200016e565b506200008891506000905033620000ba565b620000b47f6a74bd5720a9ba372841f356cf6872b1006d19dfc367da64ab98cf47824ed3c033620000ba565b62000251565b620000c68282620000ca565b5050565b60008281526005602090815260408083206001600160a01b038516845290915290205460ff16620000c65760008281526005602090815260408083206001600160a01b03851684529091529020805460ff191660011790556200012a3390565b6001600160a01b0316816001600160a01b0316837f2f8788117e7eff1d82e926ec794901d17c78024a50270940304540a733656f0d60405160405180910390a45050565b8280546200017c9062000214565b90600052602060002090601f016020900481019282620001a05760008555620001eb565b82601f10620001bb57805160ff1916838001178555620001eb565b82800160010185558215620001eb579182015b82811115620001eb578251825591602001919060010190620001ce565b50620001f9929150620001fd565b5090565b5b80821115620001f95760008155600101620001fe565b600181811c908216806200022957607f821691505b602082108114156200024b57634e487b7160e01b600052602260045260246000fd5b50919050565b6119b780620002616000396000f3fe6080604052600436106101d15760003560e01c806370641a36116100f7578063a457c2d711610095578063d547741f11610064578063d547741f146105a0578063dd62ed3e146105c0578063dfc7e8a814610606578063eaee1a3e1461060e57610227565b8063a457c2d71461052b578063a9059cbb1461054b578063b989ca3e1461056b578063cca14c4e1461057357610227565b806391d14854116100d157806391d14854146104c157806395d89b41146104e1578063997ca8c7146104f6578063a217fddf1461051657610227565b806370641a361461045f57806370a082311461047557806391b66fd5146104ab57610227565b80632bcc72111161016f57806332409ef21161013e57806332409ef2146103f757806336568abe1461040c578063395093511461042c5780635b19390a1461044c57610227565b80632bcc7211146103775780632c4c7f8c146103975780632f2ff15d146103b9578063313ce567146103db57610227565b8063095ea7b3116101ab578063095ea7b3146102f257806318160ddd1461031257806323b872dd14610327578063248a9ca31461034757610227565b806301ffc9a71461026d57806306fdde03146102a2578063078b0fb7146102c457610227565b36610227576000805160206119628339815191526101ef813361063b565b60405134815233907fb45996932dc75c82d0a34ec6559ade7e5ff091b42054be283e2577f7cc6a0a0b9060200160405180910390a250005b60405162461bcd60e51b815260206004820152601660248201527515dc9bdb99c818d85b1b081d1bc818dbdb9d1c9858dd60521b60448201526064015b60405180910390fd5b34801561027957600080fd5b5061028d610288366004611719565b6106a3565b60405190151581526020015b60405180910390f35b3480156102ae57600080fd5b506102b76106da565b60405161029991906117b8565b3480156102d057600080fd5b506102e46102df366004611629565b61076c565b604051908152602001610299565b3480156102fe57600080fd5b5061028d61030d3660046116b3565b6107ec565b34801561031e57600080fd5b506002546102e4565b34801561033357600080fd5b5061028d610342366004611677565b610802565b34801561035357600080fd5b506102e46103623660046116dd565b60009081526005602052604090206001015490565b34801561038357600080fd5b506102e4610392366004611629565b6108ac565b3480156103a357600080fd5b506102e460008051602061196283398151915281565b3480156103c557600080fd5b506103d96103d43660046116f6565b6108e2565b005b3480156103e757600080fd5b5060405160128152602001610299565b34801561040357600080fd5b506103d961090d565b34801561041857600080fd5b506103d96104273660046116f6565b6109f8565b34801561043857600080fd5b5061028d6104473660046116b3565b610a72565b34801561045857600080fd5b50476102e4565b34801561046b57600080fd5b506102e460085481565b34801561048157600080fd5b506102e4610490366004611629565b6001600160a01b031660009081526020819052604090205490565b3480156104b757600080fd5b506102e460095481565b3480156104cd57600080fd5b5061028d6104dc3660046116f6565b610aae565b3480156104ed57600080fd5b506102b7610ad9565b34801561050257600080fd5b506103d96105113660046116dd565b610ae8565b34801561052257600080fd5b506102e4600081565b34801561053757600080fd5b5061028d6105463660046116b3565b610b6b565b34801561055757600080fd5b5061028d6105663660046116b3565b610c04565b6103d9610c11565b34801561057f57600080fd5b506102e461058e366004611629565b60066020526000908152604090205481565b3480156105ac57600080fd5b506103d96105bb3660046116f6565b610d53565b3480156105cc57600080fd5b506102e46105db366004611644565b6001600160a01b03918216600090815260016020908152604080832093909416825291909152205490565b6103d9610d79565b34801561061a57600080fd5b506102e4610629366004611629565b60076020526000908152604090205481565b6106458282610aae565b61069f5761065d816001600160a01b03166014610d85565b610668836020610d85565b604051602001610679929190611743565b60408051601f198184030181529082905262461bcd60e51b8252610264916004016117b8565b5050565b60006001600160e01b03198216637965db0b60e01b14806106d457506301ffc9a760e01b6001600160e01b03198316145b92915050565b6060600380546106e9906118e4565b80601f0160208091040260200160405190810160405280929190818152602001828054610715906118e4565b80156107625780601f1061073757610100808354040283529160200191610762565b820191906000526020600020905b81548152906001019060200180831161074557829003601f168201915b5050505050905090565b6001600160a01b0381166000908152600760205260408120546008548291670de0b6b3a76400009161079e919061188a565b6107a89190611849565b6001600160a01b0384166000908152600660209081526040808320549183905282205492935090916107da908461186b565b6107e49190611831565b949350505050565b60006107f9338484610f21565b50600192915050565b600061080f848484611045565b6001600160a01b0384166000908152600160209081526040808320338452909152902054828110156108945760405162461bcd60e51b815260206004820152602860248201527f45524332303a207472616e7366657220616d6f756e74206578636565647320616044820152676c6c6f77616e636560c01b6064820152608401610264565b6108a18533858403610f21565b506001949350505050565b6000806108b88361076c565b6001600160a01b0384166000908152602081905260409020546108db9190611831565b9392505050565b6000828152600560205260409020600101546108fe813361063b565b6109088383611220565b505050565b33600081815260208190526040812054916109279061076c565b6109319083611831565b9050804710156109535760405162461bcd60e51b8152600401610264906117eb565b61095d33836112a6565b6000336001600160a01b0316826040515b60006040518083038185875af1925050503d80600081146109ab576040519150601f19603f3d011682016040523d82523d6000602084013e6109b0565b606091505b50509050806109085760405162461bcd60e51b81526020600482015260146024820152732330b4b632b2103a379039b2b7321032ba3432b960611b6044820152606401610264565b6001600160a01b0381163314610a685760405162461bcd60e51b815260206004820152602f60248201527f416363657373436f6e74726f6c3a2063616e206f6e6c792072656e6f756e636560448201526e103937b632b9903337b91039b2b63360891b6064820152608401610264565b61069f8282611400565b3360008181526001602090815260408083206001600160a01b038716845290915281205490916107f9918590610aa9908690611831565b610f21565b60009182526005602090815260408084206001600160a01b0393909316845291905290205460ff1690565b6060600480546106e9906118e4565b600080516020611962833981519152610b01813361063b565b81471015610b215760405162461bcd60e51b8152600401610264906117eb565b60405182815233907fda497d6b1b170cf66948882bb5a6d410fc151108531a010b70cec1444f0311429060200160405180910390a26000336001600160a01b03168360405161096e565b3360009081526001602090815260408083206001600160a01b038616845290915281205482811015610bed5760405162461bcd60e51b815260206004820152602560248201527f45524332303a2064656372656173656420616c6c6f77616e63652062656c6f77604482015264207a65726f60d81b6064820152608401610264565b610bfa3385858403610f21565b5060019392505050565b60006107f9338484611045565b600080516020611962833981519152610c2a813361063b565b6000610c3560025490565b905080610c785760405162461bcd60e51b8152602060048201526011602482015270139bdd1a1a5b99c81d1bc81c995dd85c99607a1b6044820152606401610264565b426009541115610cca5760405162461bcd60e51b815260206004820152601a60248201527f497420686173206e6f74206265656e2061207765656b207965740000000000006044820152606401610264565b600081610cdf34670de0b6b3a764000061186b565b610ce99190611849565b90508060086000828254610cfd9190611831565b90915550610d1090504262093a80611831565b600955604080513481526020810183905233917f0e52215462b4070fce2a63e57f8b6ed793751c4447eb1ab7064a27876744dfc1910160405180910390a2505050565b600082815260056020526040902060010154610d6f813361063b565b6109088383611400565b610d833334611467565b565b60606000610d9483600261186b565b610d9f906002611831565b67ffffffffffffffff811115610db757610db761194b565b6040519080825280601f01601f191660200182016040528015610de1576020820181803683370190505b509050600360fc1b81600081518110610dfc57610dfc611935565b60200101906001600160f81b031916908160001a905350600f60fb1b81600181518110610e2b57610e2b611935565b60200101906001600160f81b031916908160001a9053506000610e4f84600261186b565b610e5a906001611831565b90505b6001811115610ed2576f181899199a1a9b1b9c1cb0b131b232b360811b85600f1660108110610e8e57610e8e611935565b1a60f81b828281518110610ea457610ea4611935565b60200101906001600160f81b031916908160001a90535060049490941c93610ecb816118cd565b9050610e5d565b5083156108db5760405162461bcd60e51b815260206004820181905260248201527f537472696e67733a20686578206c656e67746820696e73756666696369656e746044820152606401610264565b6001600160a01b038316610f835760405162461bcd60e51b8152602060048201526024808201527f45524332303a20617070726f76652066726f6d20746865207a65726f206164646044820152637265737360e01b6064820152608401610264565b6001600160a01b038216610fe45760405162461bcd60e51b815260206004820152602260248201527f45524332303a20617070726f766520746f20746865207a65726f206164647265604482015261737360f01b6064820152608401610264565b6001600160a01b0383811660008181526001602090815260408083209487168084529482529182902085905590518481527f8c5be1e5ebec7d5bd14f71427d1e84f3dd0314c0f7b2291e5b200ac8c7c3b925910160405180910390a3505050565b6001600160a01b0383166110a95760405162461bcd60e51b815260206004820152602560248201527f45524332303a207472616e736665722066726f6d20746865207a65726f206164604482015264647265737360d81b6064820152608401610264565b6001600160a01b03821661110b5760405162461bcd60e51b815260206004820152602360248201527f45524332303a207472616e7366657220746f20746865207a65726f206164647260448201526265737360e81b6064820152608401610264565b611116838383611552565b6001600160a01b0383166000908152602081905260409020548181101561118e5760405162461bcd60e51b815260206004820152602660248201527f45524332303a207472616e7366657220616d6f756e7420657863656564732062604482015265616c616e636560d01b6064820152608401610264565b6001600160a01b038085166000908152602081905260408082208585039055918516815290812080548492906111c5908490611831565b92505081905550826001600160a01b0316846001600160a01b03167fddf252ad1be2c89b69c2b068fc378daa952ba7f163c4a11628f55a4df523b3ef8460405161121191815260200190565b60405180910390a35b50505050565b61122a8282610aae565b61069f5760008281526005602090815260408083206001600160a01b03851684529091529020805460ff191660011790556112623390565b6001600160a01b0316816001600160a01b0316837f2f8788117e7eff1d82e926ec794901d17c78024a50270940304540a733656f0d60405160405180910390a45050565b6001600160a01b0382166113065760405162461bcd60e51b815260206004820152602160248201527f45524332303a206275726e2066726f6d20746865207a65726f206164647265736044820152607360f81b6064820152608401610264565b61131282600083611552565b6001600160a01b038216600090815260208190526040902054818110156113865760405162461bcd60e51b815260206004820152602260248201527f45524332303a206275726e20616d6f756e7420657863656564732062616c616e604482015261636560f01b6064820152608401610264565b6001600160a01b03831660009081526020819052604081208383039055600280548492906113b590849061188a565b90915550506040518281526000906001600160a01b038516907fddf252ad1be2c89b69c2b068fc378daa952ba7f163c4a11628f55a4df523b3ef9060200160405180910390a3505050565b61140a8282610aae565b1561069f5760008281526005602090815260408083206001600160a01b0385168085529252808320805460ff1916905551339285917ff6391f5c32d9c69d2a47ea670b442974b53935d1edc7fd64eb21e047a839171b9190a45050565b6001600160a01b0382166114bd5760405162461bcd60e51b815260206004820152601f60248201527f45524332303a206d696e7420746f20746865207a65726f2061646472657373006044820152606401610264565b6114c960008383611552565b80600260008282546114db9190611831565b90915550506001600160a01b03821660009081526020819052604081208054839290611508908490611831565b90915550506040518181526001600160a01b038316906000907fddf252ad1be2c89b69c2b068fc378daa952ba7f163c4a11628f55a4df523b3ef9060200160405180910390a35050565b6001600160a01b038316611599576115698261076c565b6001600160a01b038316600090815260066020908152604080832093909355600854600790915291902055505050565b6001600160a01b0382166115d05750506001600160a01b031660009081526006602090815260408083208390556007909152812055565b6115d98361076c565b6001600160a01b0384166000908152600660209081526040808320939093556008546007909152919020556115698261076c565b80356001600160a01b038116811461162457600080fd5b919050565b60006020828403121561163b57600080fd5b6108db8261160d565b6000806040838503121561165757600080fd5b6116608361160d565b915061166e6020840161160d565b90509250929050565b60008060006060848603121561168c57600080fd5b6116958461160d565b92506116a36020850161160d565b9150604084013590509250925092565b600080604083850312156116c657600080fd5b6116cf8361160d565b946020939093013593505050565b6000602082840312156116ef57600080fd5b5035919050565b6000806040838503121561170957600080fd5b8235915061166e6020840161160d565b60006020828403121561172b57600080fd5b81356001600160e01b0319811681146108db57600080fd5b7f416363657373436f6e74726f6c3a206163636f756e742000000000000000000081526000835161177b8160178501602088016118a1565b7001034b99036b4b9b9b4b733903937b6329607d1b60179184019182015283516117ac8160288401602088016118a1565b01602801949350505050565b60208152600082518060208401526117d78160408501602087016118a1565b601f01601f19169190910160400192915050565b60208082526026908201527f496e73756666696369656e7420657468657220696e20636f6e74726163742062604082015265616c616e636560d01b606082015260800190565b600082198211156118445761184461191f565b500190565b60008261186657634e487b7160e01b600052601260045260246000fd5b500490565b60008160001904831182151516156118855761188561191f565b500290565b60008282101561189c5761189c61191f565b500390565b60005b838110156118bc5781810151838201526020016118a4565b8381111561121a5750506000910152565b6000816118dc576118dc61191f565b506000190190565b600181811c908216806118f857607f821691505b6020821081141561191957634e487b7160e01b600052602260045260246000fd5b50919050565b634e487b7160e01b600052601160045260246000fd5b634e487b7160e01b600052603260045260246000fd5b634e487b7160e01b600052604160045260246000fdfe6a74bd5720a9ba372841f356cf6872b1006d19dfc367da64ab98cf47824ed3c0a26469706673582212203e6f36d71da6604023f335576920b8171aaac71898278aa4998e9791db4e27c064736f6c63430008070033",
  "devdoc": {
    "kind": "dev",
    "methods": {
      "allowance(address,address)": {
        "details": "See {IERC20-allowance}."
      },
      "approve(address,uint256)": {
        "details": "See {IERC20-approve}. Requirements: - `spender` cannot be the zero address."
      },
      "balanceOf(address)": {
        "details": "See {IERC20-balanceOf}."
      },
      "decimals()": {
        "details": "Returns the number of decimals used to get its user representation. For example, if `decimals` equals `2`, a balance of `505` tokens should be displayed to a user as `5.05` (`505 / 10 ** 2`). Tokens usually opt for a value of 18, imitating the relationship between Ether and Wei. This is the value {ERC20} uses, unless this function is overridden; NOTE: This information is only used for _display_ purposes: it in no way affects any of the arithmetic of the contract, including {IERC20-balanceOf} and {IERC20-transfer}."
      },
      "decreaseAllowance(address,uint256)": {
        "details": "Atomically decreases the allowance granted to `spender` by the caller. This is an alternative to {approve} that can be used as a mitigation for problems described in {IERC20-approve}. Emits an {Approval} event indicating the updated allowance. Requirements: - `spender` cannot be the zero address. - `spender` must have allowance for the caller of at least `subtractedValue`."
      },
      "getRoleAdmin(bytes32)": {
        "details": "Returns the admin role that controls `role`. See {grantRole} and {revokeRole}. To change a role's admin, use {_setRoleAdmin}."
      },
      "grantRole(bytes32,address)": {
        "details": "Grants `role` to `account`. If `account` had not been already granted `role`, emits a {RoleGranted} event. Requirements: - the caller must have ``role``'s admin role."
      },
      "hasRole(bytes32,address)": {
        "details": "Returns `true` if `account` has been granted `role`."
      },
      "increaseAllowance(address,uint256)": {
        "details": "Atomically increases the allowance granted to `spender` by the caller. This is an alternative to {approve} that can be used as a mitigation for problems described in {IERC20-approve}. Emits an {Approval} event indicating the updated allowance. Requirements: - `spender` cannot be the zero address."
      },
      "name()": {
        "details": "Returns the name of the token."
      },
      "renounceRole(bytes32,address)": {
        "details": "Revokes `role` from the calling account. Roles are often managed via {grantRole} and {revokeRole}: this function's purpose is to provide a mechanism for accounts to lose their privileges if they are compromised (such as when a trusted device is misplaced). If the calling account had been granted `role`, emits a {RoleRevoked} event. Requirements: - the caller must be `account`."
      },
      "revokeRole(bytes32,address)": {
        "details": "Revokes `role` from `account`. If `account` had been granted `role`, emits a {RoleRevoked} event. Requirements: - the caller must have ``role``'s admin role."
      },
      "supportsInterface(bytes4)": {
        "details": "See {IERC165-supportsInterface}."
      },
      "symbol()": {
        "details": "Returns the symbol of the token, usually a shorter version of the name."
      },
      "totalSupply()": {
        "details": "See {IERC20-totalSupply}."
      },
      "transfer(address,uint256)": {
        "details": "See {IERC20-transfer}. Requirements: - `recipient` cannot be the zero address. - the caller must have a balance of at least `amount`."
      },
      "transferFrom(address,address,uint256)": {
        "details": "See {IERC20-transferFrom}. Emits an {Approval} event indicating the updated allowance. This is not required by the EIP. See the note at the beginning of {ERC20}. Requirements: - `sender` and `recipient` cannot be the zero address. - `sender` must have a balance of at least `amount`. - the caller must have allowance for ``sender``'s tokens of at least `amount`."
      }
    },
    "version": 1
  },
  "userdoc": {
    "kind": "user",
    "methods": {},
    "version": 1
  },
  "storageLayout": {
    "storage": [
      {
        "astId": 395,
        "contract": "contracts/ETHPool.sol:ETHPool",
        "label": "_balances",
        "offset": 0,
        "slot": "0",
        "type": "t_mapping(t_address,t_uint256)"
      },
      {
        "astId": 401,
        "contract": "contracts/ETHPool.sol:ETHPool",
        "label": "_allowances",
        "offset": 0,
        "slot": "1",
        "type": "t_mapping(t_address,t_mapping(t_address,t_uint256))"
      },
      {
        "astId": 403,
        "contract": "contracts/ETHPool.sol:ETHPool",
        "label": "_totalSupply",
        "offset": 0,
        "slot": "2",
        "type": "t_uint256"
      },
      {
        "astId": 405,
        "contract": "contracts/ETHPool.sol:ETHPool",
        "label": "_name",
        "offset": 0,
        "slot": "3",
        "type": "t_string_storage"
      },
      {
        "astId": 407,
        "contract": "contracts/ETHPool.sol:ETHPool",
        "label": "_symbol",
        "offset": 0,
        "slot": "4",
        "type": "t_string_storage"
      },
      {
        "astId": 24,
        "contract": "contracts/ETHPool.sol:ETHPool",
        "label": "_roles",
        "offset": 0,
        "slot": "5",
        "type": "t_mapping(t_bytes32,t_struct(RoleData)19_storage)"
      },
      {
        "astId": 1309,
        "contract": "contracts/ETHPool.sol:ETHPool",
        "label": "userToUnclaimedRewards",
        "offset": 0,
        "slot": "6",
        "type": "t_mapping(t_address,t_uint256)"
      },
      {
        "astId": 1313,
        "contract": "contracts/ETHPool.sol:ETHPool",
        "label": "userToRewardsPerTokenCredited",
        "offset": 0,
        "slot": "7",
        "type": "t_mapping(t_address,t_uint256)"
      },
      {
        "astId": 1315,
        "contract": "contracts/ETHPool.sol:ETHPool",
        "label": "rewardsPerToken",
        "offset": 0,
        "slot": "8",
        "type": "t_uint256"
      },
      {
        "astId": 1317,
        "contract": "contracts/ETHPool.sol:ETHPool",
        "label": "rewardTime",
        "offset": 0,
        "slot": "9",
        "type": "t_uint256"
      }
    ],
    "types": {
      "t_address": {
        "encoding": "inplace",
        "label": "address",
        "numberOfBytes": "20"
      },
      "t_bool": {
        "encoding": "inplace",
        "label": "bool",
        "numberOfBytes": "1"
      },
      "t_bytes32": {
        "encoding": "inplace",
        "label": "bytes32",
        "numberOfBytes": "32"
      },
      "t_mapping(t_address,t_bool)": {
        "encoding": "mapping",
        "key": "t_address",
        "label": "mapping(address => bool)",
        "numberOfBytes": "32",
        "value": "t_bool"
      },
      "t_mapping(t_address,t_mapping(t_address,t_uint256))": {
        "encoding": "mapping",
        "key": "t_address",
        "label": "mapping(address => mapping(address => uint256))",
        "numberOfBytes": "32",
        "value": "t_mapping(t_address,t_uint256)"
      },
      "t_mapping(t_address,t_uint256)": {
        "encoding": "mapping",
        "key": "t_address",
        "label": "mapping(address => uint256)",
        "numberOfBytes": "32",
        "value": "t_uint256"
      },
      "t_mapping(t_bytes32,t_struct(RoleData)19_storage)": {
        "encoding": "mapping",
        "key": "t_bytes32",
        "label": "mapping(bytes32 => struct AccessControl.RoleData)",
        "numberOfBytes": "32",
        "value": "t_struct(RoleData)19_storage"
      },
      "t_string_storage": {
        "encoding": "bytes",
        "label": "string",
        "numberOfBytes": "32"
      },
      "t_struct(RoleData)19_storage": {
        "encoding": "inplace",
        "label": "struct AccessControl.RoleData",
        "members": [
          {
            "astId": 16,
            "contract": "contracts/ETHPool.sol:ETHPool",
            "label": "members",
            "offset": 0,
            "slot": "0",
            "type": "t_mapping(t_address,t_bool)"
          },
          {
            "astId": 18,
            "contract": "contracts/ETHPool.sol:ETHPool",
            "label": "adminRole",
            "offset": 0,
            "slot": "1",
            "type": "t_bytes32"
          }
        ],
        "numberOfBytes": "64"
      },
      "t_uint256": {
        "encoding": "inplace",
        "label": "uint256",
        "numberOfBytes": "32"
      }
    }
  }
}