{
  "address": "0xaBc891A704260D5B3395A6295d8466276E78c306",
  "abi": [
    {
      "inputs": [],
      "stateMutability": "nonpayable",
      "type": "constructor"
    },
    {
      "anonymous": false,
      "inputs": [
        {
          "indexed": true,
          "internalType": "address",
          "name": "_teamMember",
          "type": "address"
        },
        {
          "indexed": false,
          "internalType": "uint256",
          "name": "_reward",
          "type": "uint256"
        },
        {
          "indexed": false,
          "internalType": "uint256",
          "name": "_ethPool",
          "type": "uint256"
        },
        {
          "indexed": false,
          "internalType": "uint256",
          "name": "_date",
          "type": "uint256"
        }
      ],
      "name": "PoolRewardDeposited",
      "type": "event"
    },
    {
      "anonymous": false,
      "inputs": [
        {
          "indexed": true,
          "internalType": "bytes32",
          "name": "role",
          "type": "bytes32"
        },
        {
          "indexed": true,
          "internalType": "bytes32",
          "name": "previousAdminRole",
          "type": "bytes32"
        },
        {
          "indexed": true,
          "internalType": "bytes32",
          "name": "newAdminRole",
          "type": "bytes32"
        }
      ],
      "name": "RoleAdminChanged",
      "type": "event"
    },
    {
      "anonymous": false,
      "inputs": [
        {
          "indexed": true,
          "internalType": "bytes32",
          "name": "role",
          "type": "bytes32"
        },
        {
          "indexed": true,
          "internalType": "address",
          "name": "account",
          "type": "address"
        },
        {
          "indexed": true,
          "internalType": "address",
          "name": "sender",
          "type": "address"
        }
      ],
      "name": "RoleGranted",
      "type": "event"
    },
    {
      "anonymous": false,
      "inputs": [
        {
          "indexed": true,
          "internalType": "bytes32",
          "name": "role",
          "type": "bytes32"
        },
        {
          "indexed": true,
          "internalType": "address",
          "name": "account",
          "type": "address"
        },
        {
          "indexed": true,
          "internalType": "address",
          "name": "sender",
          "type": "address"
        }
      ],
      "name": "RoleRevoked",
      "type": "event"
    },
    {
      "anonymous": false,
      "inputs": [
        {
          "indexed": true,
          "internalType": "address",
          "name": "_teamMember",
          "type": "address"
        },
        {
          "indexed": false,
          "internalType": "uint256",
          "name": "_value",
          "type": "uint256"
        }
      ],
      "name": "TeamETHReceived",
      "type": "event"
    },
    {
      "anonymous": false,
      "inputs": [
        {
          "indexed": true,
          "internalType": "address",
          "name": "_teamMember",
          "type": "address"
        },
        {
          "indexed": false,
          "internalType": "uint256",
          "name": "_value",
          "type": "uint256"
        }
      ],
      "name": "TeamETHWithdrawn",
      "type": "event"
    },
    {
      "anonymous": false,
      "inputs": [
        {
          "indexed": true,
          "internalType": "address",
          "name": "_user",
          "type": "address"
        },
        {
          "indexed": false,
          "internalType": "uint256",
          "name": "_deposit",
          "type": "uint256"
        },
        {
          "indexed": false,
          "internalType": "uint256",
          "name": "_date",
          "type": "uint256"
        }
      ],
      "name": "UserETHDeposited",
      "type": "event"
    },
    {
      "anonymous": false,
      "inputs": [
        {
          "indexed": true,
          "internalType": "address",
          "name": "_user",
          "type": "address"
        },
        {
          "indexed": false,
          "internalType": "uint256",
          "name": "_userETH",
          "type": "uint256"
        },
        {
          "indexed": false,
          "internalType": "uint256",
          "name": "_date",
          "type": "uint256"
        }
      ],
      "name": "UserETHWithdrawn",
      "type": "event"
    },
    {
      "stateMutability": "payable",
      "type": "fallback"
    },
    {
      "inputs": [],
      "name": "DEFAULT_ADMIN_ROLE",
      "outputs": [
        {
          "internalType": "bytes32",
          "name": "",
          "type": "bytes32"
        }
      ],
      "stateMutability": "view",
      "type": "function"
    },
    {
      "inputs": [],
      "name": "TEAM_MEMBER",
      "outputs": [
        {
          "internalType": "bytes32",
          "name": "",
          "type": "bytes32"
        }
      ],
      "stateMutability": "view",
      "type": "function"
    },
    {
      "inputs": [],
      "name": "depositPoolReward",
      "outputs": [],
      "stateMutability": "payable",
      "type": "function"
    },
    {
      "inputs": [],
      "name": "depositUserETH",
      "outputs": [],
      "stateMutability": "payable",
      "type": "function"
    },
    {
      "inputs": [],
      "name": "ethPool",
      "outputs": [
        {
          "internalType": "uint256",
          "name": "",
          "type": "uint256"
        }
      ],
      "stateMutability": "view",
      "type": "function"
    },
    {
      "inputs": [
        {
          "internalType": "bytes32",
          "name": "role",
          "type": "bytes32"
        }
      ],
      "name": "getRoleAdmin",
      "outputs": [
        {
          "internalType": "bytes32",
          "name": "",
          "type": "bytes32"
        }
      ],
      "stateMutability": "view",
      "type": "function"
    },
    {
      "inputs": [],
      "name": "getTeamETH",
      "outputs": [
        {
          "internalType": "uint256",
          "name": "",
          "type": "uint256"
        }
      ],
      "stateMutability": "view",
      "type": "function"
    },
    {
      "inputs": [
        {
          "internalType": "address",
          "name": "_user",
          "type": "address"
        }
      ],
      "name": "getUserETH",
      "outputs": [
        {
          "internalType": "uint256",
          "name": "",
          "type": "uint256"
        }
      ],
      "stateMutability": "view",
      "type": "function"
    },
    {
      "inputs": [
        {
          "internalType": "address",
          "name": "_user",
          "type": "address"
        }
      ],
      "name": "getUserRewards",
      "outputs": [
        {
          "internalType": "uint256",
          "name": "",
          "type": "uint256"
        }
      ],
      "stateMutability": "view",
      "type": "function"
    },
    {
      "inputs": [
        {
          "internalType": "bytes32",
          "name": "role",
          "type": "bytes32"
        },
        {
          "internalType": "address",
          "name": "account",
          "type": "address"
        }
      ],
      "name": "grantRole",
      "outputs": [],
      "stateMutability": "nonpayable",
      "type": "function"
    },
    {
      "inputs": [
        {
          "internalType": "bytes32",
          "name": "role",
          "type": "bytes32"
        },
        {
          "internalType": "address",
          "name": "account",
          "type": "address"
        }
      ],
      "name": "hasRole",
      "outputs": [
        {
          "internalType": "bool",
          "name": "",
          "type": "bool"
        }
      ],
      "stateMutability": "view",
      "type": "function"
    },
    {
      "inputs": [
        {
          "internalType": "bytes32",
          "name": "role",
          "type": "bytes32"
        },
        {
          "internalType": "address",
          "name": "account",
          "type": "address"
        }
      ],
      "name": "renounceRole",
      "outputs": [],
      "stateMutability": "nonpayable",
      "type": "function"
    },
    {
      "inputs": [
        {
          "internalType": "bytes32",
          "name": "role",
          "type": "bytes32"
        },
        {
          "internalType": "address",
          "name": "account",
          "type": "address"
        }
      ],
      "name": "revokeRole",
      "outputs": [],
      "stateMutability": "nonpayable",
      "type": "function"
    },
    {
      "inputs": [],
      "name": "rewardTime",
      "outputs": [
        {
          "internalType": "uint256",
          "name": "",
          "type": "uint256"
        }
      ],
      "stateMutability": "view",
      "type": "function"
    },
    {
      "inputs": [],
      "name": "rewardsPerToken",
      "outputs": [
        {
          "internalType": "uint256",
          "name": "",
          "type": "uint256"
        }
      ],
      "stateMutability": "view",
      "type": "function"
    },
    {
      "inputs": [
        {
          "internalType": "bytes4",
          "name": "interfaceId",
          "type": "bytes4"
        }
      ],
      "name": "supportsInterface",
      "outputs": [
        {
          "internalType": "bool",
          "name": "",
          "type": "bool"
        }
      ],
      "stateMutability": "view",
      "type": "function"
    },
    {
      "inputs": [
        {
          "internalType": "address",
          "name": "",
          "type": "address"
        }
      ],
      "name": "userToDeposit",
      "outputs": [
        {
          "internalType": "uint256",
          "name": "deposit",
          "type": "uint256"
        },
        {
          "internalType": "uint256",
          "name": "rewardsPerTokenCredited",
          "type": "uint256"
        },
        {
          "internalType": "uint256",
          "name": "unclaimedRewards",
          "type": "uint256"
        }
      ],
      "stateMutability": "view",
      "type": "function"
    },
    {
      "inputs": [
        {
          "internalType": "uint256",
          "name": "_value",
          "type": "uint256"
        }
      ],
      "name": "withdrawTeamETH",
      "outputs": [],
      "stateMutability": "nonpayable",
      "type": "function"
    },
    {
      "inputs": [],
      "name": "withdrawUserETH",
      "outputs": [],
      "stateMutability": "nonpayable",
      "type": "function"
    },
    {
      "stateMutability": "payable",
      "type": "receive"
    }
  ],
  "transactionHash": "0x3078bdf4859aa2bfac71a3114ae825966812c648715a8498985889b720349789",
  "args": [],
  "solcInputHash": "59fb94c46bff6ae8ba3eab9a6d2e397b",
  "bytecode": "0x608060405234801561001057600080fd5b5061001c60003361004b565b6100467f6a74bd5720a9ba372841f356cf6872b1006d19dfc367da64ab98cf47824ed3c03361004b565b6100f7565b6100558282610059565b5050565b6000828152602081815260408083206001600160a01b038516845290915290205460ff16610055576000828152602081815260408083206001600160a01b03851684529091529020805460ff191660011790556100b33390565b6001600160a01b0316816001600160a01b0316837f2f8788117e7eff1d82e926ec794901d17c78024a50270940304540a733656f0d60405160405180910390a45050565b610fdf806101066000396000f3fe6080604052600436106101185760003560e01c806370641a36116100a0578063a217fddf11610064578063a217fddf146103b5578063b989ca3e146103ca578063d547741f146103d2578063dfc7e8a8146103f2578063f16673a4146103fa5761016e565b806370641a36146102f35780637ae636681461030957806391b66fd51461035f57806391d1485414610375578063997ca8c7146103955761016e565b80632c4c7f8c116100e75780632c4c7f8c146102675780632f2ff15d1461028957806332409ef2146102ab57806336568abe146102c05780635b19390a146102e05761016e565b806301ffc9a7146101b4578063078b0fb7146101e9578063248a9ca3146102175780632bcc7211146102475761016e565b3661016e57600080516020610f8a8339815191526101368133610410565b60405134815233907fb45996932dc75c82d0a34ec6559ade7e5ff091b42054be283e2577f7cc6a0a0b9060200160405180910390a250005b60405162461bcd60e51b815260206004820152601660248201527515dc9bdb99c818d85b1b081d1bc818dbdb9d1c9858dd60521b60448201526064015b60405180910390fd5b3480156101c057600080fd5b506101d46101cf366004610d78565b610478565b60405190151581526020015b60405180910390f35b3480156101f557600080fd5b50610209610204366004610d18565b6104af565b6040519081526020016101e0565b34801561022357600080fd5b50610209610232366004610d33565b60009081526020819052604090206001015490565b34801561025357600080fd5b50610209610262366004610d18565b61051a565b34801561027357600080fd5b50610209600080516020610f8a83398151915281565b34801561029557600080fd5b506102a96102a4366004610d4c565b610550565b005b3480156102b757600080fd5b506102a961057b565b3480156102cc57600080fd5b506102a96102db366004610d4c565b6106cd565b3480156102ec57600080fd5b5047610209565b3480156102ff57600080fd5b5061020960025481565b34801561031557600080fd5b50610344610324366004610d18565b600160208190526000918252604090912080549181015460029091015483565b604080519384526020840192909252908201526060016101e0565b34801561036b57600080fd5b5061020960035481565b34801561038157600080fd5b506101d4610390366004610d4c565b610747565b3480156103a157600080fd5b506102a96103b0366004610d33565b610770565b3480156103c157600080fd5b50610209600081565b6102a96107f3565b3480156103de57600080fd5b506102a96103ed366004610d4c565b610931565b6102a9610957565b34801561040657600080fd5b5061020960045481565b61041a8282610747565b61047457610432816001600160a01b03166014610a77565b61043d836020610a77565b60405160200161044e929190610da2565b60408051601f198184030181529082905262461bcd60e51b82526101ab91600401610e17565b5050565b60006001600160e01b03198216637965db0b60e01b14806104a957506301ffc9a760e01b6001600160e01b03198316145b92915050565b6001600160a01b03811660009081526001602081905260408220908101546002548391670de0b6b3a7640000916104e69190610ee9565b6104f09190610ea8565b600283015483549192506000916105079084610eca565b6105119190610e90565b95945050505050565b600080610526836104af565b6001600160a01b0384166000908152600160205260409020546105499190610e90565b9392505050565b60008281526020819052604090206001015461056c8133610410565b6105768383610c13565b505050565b3360008181526001602052604081205491610595906104af565b61059f9083610e90565b9050804710156105c15760405162461bcd60e51b81526004016101ab90610e4a565b3360009081526001602081905260408220828155908101829055600201819055600480548492906105f3908490610ee9565b90915550506040805182815242602082015233917fe50db28704f01f92dc4083eead7f9903f84525c5c85c766ebb3cdec4e0a41472910160405180910390a26000336001600160a01b0316826040515b60006040518083038185875af1925050503d8060008114610680576040519150601f19603f3d011682016040523d82523d6000602084013e610685565b606091505b50509050806105765760405162461bcd60e51b81526020600482015260146024820152732330b4b632b2103a379039b2b7321032ba3432b960611b60448201526064016101ab565b6001600160a01b038116331461073d5760405162461bcd60e51b815260206004820152602f60248201527f416363657373436f6e74726f6c3a2063616e206f6e6c792072656e6f756e636560448201526e103937b632b9903337b91039b2b63360891b60648201526084016101ab565b6104748282610c97565b6000918252602082815260408084206001600160a01b0393909316845291905290205460ff1690565b600080516020610f8a8339815191526107898133610410565b814710156107a95760405162461bcd60e51b81526004016101ab90610e4a565b60405182815233907fda497d6b1b170cf66948882bb5a6d410fc151108531a010b70cec1444f0311429060200160405180910390a26000336001600160a01b031683604051610643565b600080516020610f8a83398151915261080c8133610410565b60045461084f5760405162461bcd60e51b8152602060048201526011602482015270139bdd1a1a5b99c81d1bc81c995dd85c99607a1b60448201526064016101ab565b4260035411156108a15760405162461bcd60e51b815260206004820152601a60248201527f497420686173206e6f74206265656e2061207765656b2079657400000000000060448201526064016101ab565b6004546108b634670de0b6b3a7640000610eca565b6108c09190610ea8565b600260008282546108d19190610e90565b909155506108e490504262093a80610e90565b600355600454604080513481526020810192909252429082015233907fd9328647ffe4cc03e49d0456b0432c8e2b643681d89daf041f72f03e86a76a72906060015b60405180910390a250565b60008281526020819052604090206001015461094d8133610410565b6105768383610c97565b346109a45760405162461bcd60e51b815260206004820152601860248201527f4e6f2065746865722073656e7420746f206465706f736974000000000000000060448201526064016101ab565b336000908152600160208181526040928390208351606081018552815480825293820154928101929092526002015492810192909252349082906109e9908390610e90565b90525060025460208201526109fd336104af565b604080830191825233600090815260016020818152928220855181559285015190830155915160029091015560048054349290610a3b908490610e90565b90915550506040805134815242602082015233917ff556fdc05d48a25da0833f837e5df79af04aef5a1193228b7e2862a8a61151e19101610926565b60606000610a86836002610eca565b610a91906002610e90565b67ffffffffffffffff811115610aa957610aa9610f73565b6040519080825280601f01601f191660200182016040528015610ad3576020820181803683370190505b509050600360fc1b81600081518110610aee57610aee610f5d565b60200101906001600160f81b031916908160001a905350600f60fb1b81600181518110610b1d57610b1d610f5d565b60200101906001600160f81b031916908160001a9053506000610b41846002610eca565b610b4c906001610e90565b90505b6001811115610bc4576f181899199a1a9b1b9c1cb0b131b232b360811b85600f1660108110610b8057610b80610f5d565b1a60f81b828281518110610b9657610b96610f5d565b60200101906001600160f81b031916908160001a90535060049490941c93610bbd81610f30565b9050610b4f565b5083156105495760405162461bcd60e51b815260206004820181905260248201527f537472696e67733a20686578206c656e67746820696e73756666696369656e7460448201526064016101ab565b610c1d8282610747565b610474576000828152602081815260408083206001600160a01b03851684529091529020805460ff19166001179055610c533390565b6001600160a01b0316816001600160a01b0316837f2f8788117e7eff1d82e926ec794901d17c78024a50270940304540a733656f0d60405160405180910390a45050565b610ca18282610747565b15610474576000828152602081815260408083206001600160a01b0385168085529252808320805460ff1916905551339285917ff6391f5c32d9c69d2a47ea670b442974b53935d1edc7fd64eb21e047a839171b9190a45050565b80356001600160a01b0381168114610d1357600080fd5b919050565b600060208284031215610d2a57600080fd5b61054982610cfc565b600060208284031215610d4557600080fd5b5035919050565b60008060408385031215610d5f57600080fd5b82359150610d6f60208401610cfc565b90509250929050565b600060208284031215610d8a57600080fd5b81356001600160e01b03198116811461054957600080fd5b7f416363657373436f6e74726f6c3a206163636f756e7420000000000000000000815260008351610dda816017850160208801610f00565b7001034b99036b4b9b9b4b733903937b6329607d1b6017918401918201528351610e0b816028840160208801610f00565b01602801949350505050565b6020815260008251806020840152610e36816040850160208701610f00565b601f01601f19169190910160400192915050565b60208082526026908201527f496e73756666696369656e7420657468657220696e20636f6e74726163742062604082015265616c616e636560d01b606082015260800190565b60008219821115610ea357610ea3610f47565b500190565b600082610ec557634e487b7160e01b600052601260045260246000fd5b500490565b6000816000190483118215151615610ee457610ee4610f47565b500290565b600082821015610efb57610efb610f47565b500390565b60005b83811015610f1b578181015183820152602001610f03565b83811115610f2a576000848401525b50505050565b600081610f3f57610f3f610f47565b506000190190565b634e487b7160e01b600052601160045260246000fd5b634e487b7160e01b600052603260045260246000fd5b634e487b7160e01b600052604160045260246000fdfe6a74bd5720a9ba372841f356cf6872b1006d19dfc367da64ab98cf47824ed3c0a2646970667358221220eb5a6b7f0e12a6298ddc6a92a3b4ee7f090f486b956d565668687b428cf2fa6764736f6c63430008070033",
  "devdoc": {
    "kind": "dev",
    "methods": {
      "getRoleAdmin(bytes32)": {
        "details": "Returns the admin role that controls `role`. See {grantRole} and {revokeRole}. To change a role's admin, use {_setRoleAdmin}."
      },
      "grantRole(bytes32,address)": {
        "details": "Grants `role` to `account`. If `account` had not been already granted `role`, emits a {RoleGranted} event. Requirements: - the caller must have ``role``'s admin role."
      },
      "hasRole(bytes32,address)": {
        "details": "Returns `true` if `account` has been granted `role`."
      },
      "renounceRole(bytes32,address)": {
        "details": "Revokes `role` from the calling account. Roles are often managed via {grantRole} and {revokeRole}: this function's purpose is to provide a mechanism for accounts to lose their privileges if they are compromised (such as when a trusted device is misplaced). If the calling account had been granted `role`, emits a {RoleRevoked} event. Requirements: - the caller must be `account`."
      },
      "revokeRole(bytes32,address)": {
        "details": "Revokes `role` from `account`. If `account` had been granted `role`, emits a {RoleRevoked} event. Requirements: - the caller must have ``role``'s admin role."
      },
      "supportsInterface(bytes4)": {
        "details": "See {IERC165-supportsInterface}."
      }
    },
    "version": 1
  },
  "userdoc": {
    "kind": "user",
    "methods": {},
    "version": 1
  },
  "storageLayout": {
    "storage": [
      {
        "astId": 24,
        "contract": "contracts/ETHPool.sol:ETHPool",
        "label": "_roles",
        "offset": 0,
        "slot": "0",
        "type": "t_mapping(t_bytes32,t_struct(RoleData)19_storage)"
      },
      {
        "astId": 658,
        "contract": "contracts/ETHPool.sol:ETHPool",
        "label": "userToDeposit",
        "offset": 0,
        "slot": "1",
        "type": "t_mapping(t_address,t_struct(UserDeposit)1050_storage)"
      },
      {
        "astId": 660,
        "contract": "contracts/ETHPool.sol:ETHPool",
        "label": "rewardsPerToken",
        "offset": 0,
        "slot": "2",
        "type": "t_uint256"
      },
      {
        "astId": 662,
        "contract": "contracts/ETHPool.sol:ETHPool",
        "label": "rewardTime",
        "offset": 0,
        "slot": "3",
        "type": "t_uint256"
      },
      {
        "astId": 664,
        "contract": "contracts/ETHPool.sol:ETHPool",
        "label": "ethPool",
        "offset": 0,
        "slot": "4",
        "type": "t_uint256"
      }
    ],
    "types": {
      "t_address": {
        "encoding": "inplace",
        "label": "address",
        "numberOfBytes": "20"
      },
      "t_bool": {
        "encoding": "inplace",
        "label": "bool",
        "numberOfBytes": "1"
      },
      "t_bytes32": {
        "encoding": "inplace",
        "label": "bytes32",
        "numberOfBytes": "32"
      },
      "t_mapping(t_address,t_bool)": {
        "encoding": "mapping",
        "key": "t_address",
        "label": "mapping(address => bool)",
        "numberOfBytes": "32",
        "value": "t_bool"
      },
      "t_mapping(t_address,t_struct(UserDeposit)1050_storage)": {
        "encoding": "mapping",
        "key": "t_address",
        "label": "mapping(address => struct IETHPool.UserDeposit)",
        "numberOfBytes": "32",
        "value": "t_struct(UserDeposit)1050_storage"
      },
      "t_mapping(t_bytes32,t_struct(RoleData)19_storage)": {
        "encoding": "mapping",
        "key": "t_bytes32",
        "label": "mapping(bytes32 => struct AccessControl.RoleData)",
        "numberOfBytes": "32",
        "value": "t_struct(RoleData)19_storage"
      },
      "t_struct(RoleData)19_storage": {
        "encoding": "inplace",
        "label": "struct AccessControl.RoleData",
        "members": [
          {
            "astId": 16,
            "contract": "contracts/ETHPool.sol:ETHPool",
            "label": "members",
            "offset": 0,
            "slot": "0",
            "type": "t_mapping(t_address,t_bool)"
          },
          {
            "astId": 18,
            "contract": "contracts/ETHPool.sol:ETHPool",
            "label": "adminRole",
            "offset": 0,
            "slot": "1",
            "type": "t_bytes32"
          }
        ],
        "numberOfBytes": "64"
      },
      "t_struct(UserDeposit)1050_storage": {
        "encoding": "inplace",
        "label": "struct IETHPool.UserDeposit",
        "members": [
          {
            "astId": 1045,
            "contract": "contracts/ETHPool.sol:ETHPool",
            "label": "deposit",
            "offset": 0,
            "slot": "0",
            "type": "t_uint256"
          },
          {
            "astId": 1047,
            "contract": "contracts/ETHPool.sol:ETHPool",
            "label": "rewardsPerTokenCredited",
            "offset": 0,
            "slot": "1",
            "type": "t_uint256"
          },
          {
            "astId": 1049,
            "contract": "contracts/ETHPool.sol:ETHPool",
            "label": "unclaimedRewards",
            "offset": 0,
            "slot": "2",
            "type": "t_uint256"
          }
        ],
        "numberOfBytes": "96"
      },
      "t_uint256": {
        "encoding": "inplace",
        "label": "uint256",
        "numberOfBytes": "32"
      }
    }
  }
}